{
  "transactions": [
    {
      "hash": "0xa33b8b876e05124c58f3063f9bce826916beaa0298688aee3bc4392137e27c1e",
      "transactionType": "CREATE",
      "contractName": "Eventlogger",
      "contractAddress": "0x7adb2400e82eeaad48518b6bdca5953c3a0f2d3b",
      "function": null,
      "arguments": null,
      "transaction": {
        "from": "0x792de7ef1348c0ab9033f1674db57a366c96d54e",
        "gas": "0x5fc59",
        "value": "0x0",
        "input": "0x608060405234801561000f575f80fd5b506104828061001d5f395ff3fe608060405234801561000f575f80fd5b5060043610610034575f3560e01c80630cd0563b14610038578063dcfbac5814610054575b5f80fd5b610052600480360381019061004d9190610272565b610072565b005b61005c610120565b60405161006991906102d1565b60405180910390f35b5f8151116100b5576040517f08c379a00000000000000000000000000000000000000000000000000000000081526004016100ac90610344565b60405180910390fd5b60015f808282546100c6919061038f565b925050819055503373ffffffffffffffffffffffffffffffffffffffff165f547fe856c05fcc8c7eca015c64187e1ef17498a612dd35b10ba604e1ae0b5429135283604051610115919061042c565b60405180910390a350565b5f5481565b5f604051905090565b5f80fd5b5f80fd5b5f80fd5b5f80fd5b5f601f19601f8301169050919050565b7f4e487b71000000000000000000000000000000000000000000000000000000005f52604160045260245ffd5b6101848261013e565b810181811067ffffffffffffffff821117156101a3576101a261014e565b5b80604052505050565b5f6101b5610125565b90506101c1828261017b565b919050565b5f67ffffffffffffffff8211156101e0576101df61014e565b5b6101e98261013e565b9050602081019050919050565b828183375f83830152505050565b5f610216610211846101c6565b6101ac565b9050828152602081018484840111156102325761023161013a565b5b61023d8482856101f6565b509392505050565b5f82601f83011261025957610258610136565b5b8135610269848260208601610204565b91505092915050565b5f602082840312156102875761028661012e565b5b5f82013567ffffffffffffffff8111156102a4576102a3610132565b5b6102b084828501610245565b91505092915050565b5f819050919050565b6102cb816102b9565b82525050565b5f6020820190506102e45f8301846102c2565b92915050565b5f82825260208201905092915050565b7f6d6573736167652063616e6e6f7420626520656d7074790000000000000000005f82015250565b5f61032e6017836102ea565b9150610339826102fa565b602082019050919050565b5f6020820190508181035f83015261035b81610322565b9050919050565b7f4e487b71000000000000000000000000000000000000000000000000000000005f52601160045260245ffd5b5f610399826102b9565b91506103a4836102b9565b92508282019050808211156103bc576103bb610362565b5b92915050565b5f81519050919050565b5f5b838110156103e95780820151818401526020810190506103ce565b5f8484015250505050565b5f6103fe826103c2565b61040881856102ea565b93506104188185602086016103cc565b6104218161013e565b840191505092915050565b5f6020820190508181035f83015261044481846103f4565b90509291505056fea264697066735822122026fa67279c16255604f46acb99f3c3ac080527dc44a7e6bfde5302f2bad2156e64736f6c63430008140033",
        "nonce": "0x0",
        "chainId": "0xaa36a7"
      },
      "additionalContracts": [],
      "isFixedGasLimit": false
    },
    {
      "hash": "0x84757a179439c3a01bf41911dd436cc46a1d638be4dc8e996a352a1a70b4dd03",
      "transactionType": "CALL",
      "contractName": "Eventlogger",
      "contractAddress": "0x7adb2400e82eeaad48518b6bdca5953c3a0f2d3b",
      "function": "broadcast(string)",
      "arguments": [
        "hello its my first deployment script"
      ],
      "transaction": {
        "from": "0x792de7ef1348c0ab9033f1674db57a366c96d54e",
        "to": "0x7adb2400e82eeaad48518b6bdca5953c3a0f2d3b",
        "gas": "0x11528",
        "value": "0x0",
        "input": "0x0cd0563b0000000000000000000000000000000000000000000000000000000000000020000000000000000000000000000000000000000000000000000000000000002468656c6c6f20697473206d79206669727374206465706c6f796d656e742073637269707400000000000000000000000000000000000000000000000000000000",
        "nonce": "0x1",
        "chainId": "0xaa36a7"
      },
      "additionalContracts": [],
      "isFixedGasLimit": false
    }
  ],
  "receipts": [
    {
      "status": "0x1",
      "cumulativeGasUsed": "0x19bc001",
      "logs": [],
      "logsBloom": "0x00000000000000000000000000000000000000000000000000000000000000000000000000000000000000000000000000000000000000000000000000000000000000000000000000000000000000000000000000000000000000000000000000000000000000000000000000000000000000000000000000000000000000000000000000000000000000000000000000000000000000000000000000000000000000000000000000000000000000000000000000000000000000000000000000000000000000000000000000000000000000000000000000000000000000000000000000000000000000000000000000000000000000000000000000000000",
      "type": "0x2",
      "transactionHash": "0xa33b8b876e05124c58f3063f9bce826916beaa0298688aee3bc4392137e27c1e",
      "transactionIndex": "0x99",
      "blockHash": "0x3bbaf93acab4a6dae33999aa6ee016259d77dce71c4b1d44ce03f8fe2fddea5e",
      "blockNumber": "0xaa42ec",
      "gasUsed": "0x49abb",
      "effectiveGasPrice": "0xfc38a156",
      "from": "0x792de7ef1348c0ab9033f1674db57a366c96d54e",
      "to": null,
      "contractAddress": "0x7adb2400e82eeaad48518b6bdca5953c3a0f2d3b"
    },
    {
      "status": "0x1",
      "cumulativeGasUsed": "0x19c7d84",
      "logs": [
        {
          "address": "0x7adb2400e82eeaad48518b6bdca5953c3a0f2d3b",
          "topics": [
            "0xe856c05fcc8c7eca015c64187e1ef17498a612dd35b10ba604e1ae0b54291352",
            "0x0000000000000000000000000000000000000000000000000000000000000001",
            "0x000000000000000000000000792de7ef1348c0ab9033f1674db57a366c96d54e"
          ],
          "data": "0x0000000000000000000000000000000000000000000000000000000000000020000000000000000000000000000000000000000000000000000000000000002468656c6c6f20697473206d79206669727374206465706c6f796d656e742073637269707400000000000000000000000000000000000000000000000000000000",
          "blockHash": "0x3bbaf93acab4a6dae33999aa6ee016259d77dce71c4b1d44ce03f8fe2fddea5e",
          "blockNumber": "0xaa42ec",
          "blockTimestamp": "0x6a4111f4",
          "transactionHash": "0x84757a179439c3a01bf41911dd436cc46a1d638be4dc8e996a352a1a70b4dd03",
          "transactionIndex": "0x9a",
          "logIndex": "0x495",
          "removed": false
        }
      ],
      "logsBloom": "0x00000000000000000000000000000000000000000000000000000000000000000000000000000000000000000000000000000000000000000000000000040000000000000000000000000000000000000000010000040000000000000000000000000000000000000000000000000000000000000000000000000000000000000000000000000000000000000000000000000000000000000000000000000400000000000000000000000000000000000000000000000001000000000200010000000000000000000000000000000001000040000000000000000000000040000000000000000000000000000000000000000000002002000000000000000000",
      "type": "0x2",
      "transactionHash": "0x84757a179439c3a01bf41911dd436cc46a1d638be4dc8e996a352a1a70b4dd03",
      "transactionIndex": "0x9a",
      "blockHash": "0x3bbaf93acab4a6dae33999aa6ee016259d77dce71c4b1d44ce03f8fe2fddea5e",
      "blockNumber": "0xaa42ec",
      "gasUsed": "0xbd83",
      "effectiveGasPrice": "0xfc38a156",
      "from": "0x792de7ef1348c0ab9033f1674db57a366c96d54e",
      "to": "0x7adb2400e82eeaad48518b6bdca5953c3a0f2d3b",
      "contractAddress": null
    }
  ],
  "libraries": [],
  "pending": [],
  "returns": {},
  "timestamp": 1782649332761,
  "chain": 11155111,
  "commit": "cd5b129"
}